:020000040800F2
:1000000000200020852A0008C5270008C72700080F
:1000100000000000000000000000000000000000E0
:10002000000000000000000000000000C9270008D8
:100030000000000000000000CB270008CD270008CA
:10004000D52A0008D52A0008D52A0008D52A000894
:10005000D52A0008D5270008D52A0008D52A000887
:10006000D52A0008D52A0008D52A0008D52A000874
:10007000D52A0008D52A000800000000D52A00086B
:1000800000000000D52A0008000000000000000069
:10009000D52A000800000000D52A0008D52A00084B
:1000A000D52A0008D52A0008D52A0008D52A000834
:1000B000D52A0008D52A0008D52A0008D52A000824
:1000C00010B5064C2378002B07D1054B002B02D02E
:1000D000044800E000BF0123237010BD6800002029
:1000E0000000000080390008044B10B5002B03D03D
:1000F0000349044800E000BF10BDC04600000000F6
:100100006C00002080390008002243088B4274D321
:1001100003098B425FD3030A8B4244D3030B8B4208
:1001200028D3030C8B420DD3FF22090212BA030C11
:100130008B4202D31212090265D0030B8B4219D3F2
:1001400000E0090AC30B8B4201D3CB03C01A524112
:10015000830B8B4201D38B03C01A5241430B8B425A
:1001600001D34B03C01A5241030B8B4201D30B0343
:10017000C01A5241C30A8B4201D3CB02C01A52416A
:10018000830A8B4201D38B02C01A5241430A8B422D
:1001900001D34B02C01A5241030A8B4201D30B0216
:1001A000C01A5241CDD2C3098B4201D3CB01C01A30
:1001B000524183098B4201D38B01C01A524143093A
:1001C0008B4201D34B01C01A524103098B4201D328
:1001D0000B01C01A5241C3088B4201D3CB00C01A95
:1001E000524183088B4201D38B00C01A524143080D
:1001F0008B4201D34B00C01A5241411A00D2014632
:10020000524110467047FFE701B5002000F006F8A4
:1002100002BDC0460029F7D076E770477047C04658
:10022000002B11D1002A0FD1002900D1002802D0C3
:100230000021C943081C07B4024802A140180290DB
:1002400003BDC046D9FFFFFF03B4684601B502985D
:1002500000F006F8019B9E4602B00CBC7047C046F9
:10026000F0B54F464646D646C0B5040082B00D00F4
:10027000914698468B422FD82CD04146484600F0F4
:10028000B1F829000600200000F0ACF8331A9C46B3
:10029000203B9A4600D576E04B46524693401F00DD
:1002A0004B46624693401E00AF4228D825D05346A5
:1002B000A41BBD41002B00DA7BE00022002300924A
:1002C00001930123524693400193012362469340D8
:1002D000009318E08242D0D90022002300920193BB
:1002E0000A9B002B01D01C605D600098019902B050
:1002F0001CBC90469946A246F0BDA342D7D9002225
:100300000023009201936346002BE9D0FB07984637
:10031000414672080A437B0866460EE0AB4201D1B3
:10032000A2420CD8A41A9D41012024196D4100213C
:10033000013E24184D41002E06D0AB42EED9013EBD
:1003400024196D41002EF8D10098019953460019E7
:100350006941002B23DB2B005246D3402A00644620
:10036000E2401C0053461500002B2DDB26005746AB
:10037000BE40330026006746BE403200801A9941D5
:1003800000900191ACE7624620239B1A4A46DA406E
:100390006146130042468A4017001F4380E76246C9
:1003A00020239B1A2A0066469A402300F3401343F9
:1003B000D4E76246202300219B1A0022009101927B
:1003C0000122DA40019280E72023624626009B1A30
:1003D000DE402F00B0466646B74046463B003343FA
:1003E000C8E7C04610B5002903D100F007F8203057
:1003F00002E0081C00F002F810BDC0461C210123D9
:100400001B04984201D3000C10391B0A984201D3F7
:10041000000A08391B09984201D30009043902A2D5
:10042000105C40187047C04604030202010101013C
:10043000000000000000000010B50400094B18681F
:10044000FA218900FFF760FE00F078F8002801D05B
:10045000012010BD013000222100404200F034F89C
:100460000020F6E70000002010B5084A136840217C
:100470000B4313600020FFF7DFFF041E02D00124AE
:10048000200010BD02F090F9FAE7C04600200240BB
:10049000024A1368013313607047C0467404002099
:1004A000014B18687047C0467404002070B5040002
:1004B000FFF7F6FF0500631C00D00134FFF7F0FFE3
:1004C000401BA042FAD370BD70B5002811DB840830
:1004D000134DC034A400625903231840C000FC33FC
:1004E0001E008640B24389010B4083401343635191
:1004F00070BDC0B20F220240083A92080632920044
:10050000084BD3185D6803242040C000FF2214006C
:100510008440A54389010A4082402A435A60E7E7A4
:1005200000E100E000ED00E01F2318401E3B834087
:10053000014A13607047C04600E100E001380A4BF1
:1005400098420FD8094A50600948036A1B021B0AE7
:10055000C02109060B430362002393600733136035
:10056000002070470120FCE7FFFFFF0010E000E0E3
:1005700000ED00E0F0B5C64600B5002338E00526E2
:1005800000E00026AE4035003D430234A400554E45
:10059000A551554C25684246D4432E0026404A6852
:1005A000D20302D5424615432E004F4D2E606D6892
:1005B0002E0026404A68920302D5424615432E007B
:1005C000494D6E60AD682E0026404A68D20202D5C1
:1005D000424615432E00444DAE60ED682C404A68FB
:1005E000920202D542462A4314003F4AD4600133A6
:1005F0000A681400DC4072D001249C4022409046DE
:10060000F5D04D68022D01D0122D0ED1DD08083530
:10061000AD002F5807261E40B6000F22B240974368
:100620000A69B24016003E432E504D686E1E012EE0
:1006300003D9112D01D0122D12D185685F00032638
:10064000BE40B5432E00CD68BD403543856045684A
:10065000A5434A681609012434409C402C43446059
:1006600007685E0003242500B540ED432F404A682B
:100670001440B4403C430460C46825408C68B440D6
:100680002C43C4604A68D200B1D5184D6C6B01266A
:1006900034436C639C08A51CAD00124EAF59032671
:1006A0001E40B5000F26AE40B743A026F605B04267
:1006B00000D166E70E4EB0420BD00E4EB0420AD0CB
:1006C0000D4EB04209D00D4EB04200D157E706267C
:1006D00058E7012656E7022654E7032652E704BCF2
:1006E0009046F0BD000001400004014000100240AF
:1006F0000004005000080050000C0050001C005086
:10070000F0B5D6464F464646C0B5002306E005255F
:1007100000E000259540A5424FD001330A00DA40A1
:1007200061D001229A400C001440A446F5D006681E
:100730005D000324A2462700AF403D003E43066013
:10074000DF080837BF003C58A14607261E40B60008
:100750000F24A046B44026004C46B4433C50866863
:10076000ED432E408660466896434660C268154059
:10077000C5609E08B51CAD001D4AAD5852461A40D2
:100780009200474697402C003C40A025ED05A8422A
:10079000BFD0184DA8420AD0174DA84209D0174D16
:1007A000A84208D0164DA842B1D00625B2E70125CF
:1007B000B0E70225AEE70325ACE70D4DB21C920071
:1007C0005459BC4354510F4C25686246D2431540DE
:1007D0002560656815406560A5681540A560E568F9
:1007E0002A40E26099E71CBC90469946A246F0BDBB
:1007F000000001400004005000080050000C0050B0
:10080000001C00500004014003690B4201D100208C
:1008100070470120FCE7002A01D1816270478161A5
:10082000FCE7000010B5264BD9680C230B40082BC1
:1008300042D00C2B11D0042B09D0214B5A68520BFB
:1008400007231340013380200002984010BD1C4B49
:100850001B68DB0632D51B48F8E78A0C0F231340D0
:10086000194AD05C890D032211400131144BDB6819
:10087000DB030DD4124B1B68DB0613D54201121AA1
:1008800093019B1ADB001B181802FFF73DFCDDE704
:100890004201121A93019B1ADB001B185802FFF742
:1008A00033FCD3E74201121A93019B1ADB001B1899
:1008B0009802FFF729FCC9E70448C7E70448C5E7E1
:1008C0000010024000093D00E039000800127A00E3
:1008D0000024F400F0B583B0041E00D197E2CA4BA7
:1008E000DA680C251540DA6880267602164003681F
:1008F000DB0736D5082D2CD00C2D28D0636880223C
:10090000520293424DD0A022D202934250D0BE4B0D
:100910001A68BE490A401A601A68802149020A40D2
:100920000192019A1A68BA490A401A606368002B5A
:100930004AD0FFF7B5FD0700B34B1B689B0310D4EB
:10094000FFF7AEFDC01B6428F6D9032060E2002E3D
:10095000D4D0AD4B1B689B0303D56368002B00D13B
:1009600058E223689B0764D5E368042D3CD00C2D26
:1009700038D0002B00D1AEE0A3490A680920824399
:1009800013430B60FFF78CFD06009F4B1B685B0752
:1009900000D597E0FFF784FD801B0228F5D90320DE
:1009A00036E2994A116880235B020B431360BDE76E
:1009B000954B19688022D2020A431A601968802276
:1009C00052020A431A60B1E7FFF76AFD07008E4B37
:1009D0001B689B03C5D5FFF763FDC01B6428F6D9D0
:1009E000032015E2002EC4D1874A1268520702D5AF
:1009F000002B00D110E2844E726886490A402169BA
:100A000009020A437260326809218A431343336042
:100A1000FFF708FFF26812090F2313407E4AD35CE8
:100A2000D8407E4B18600020FFF706FD002800D05C
:100A3000EEE12368DB062CD5002D5FD1724B1B68DD
:100A40009B0503D5E369002B00D1E7E16E4A5368AB
:100A500073490B40616A0B43536053681B021B0AC6
:100A6000216A09060B435360636A590B01318023E5
:100A70001B028B40D16809090F220A4066498A5C33
:100A8000D340664A13600020FFF7D6FC002800D050
:100A9000BEE123681B077DD56369002B67D05A4AE6
:100AA000136D01210B431365FFF7FAFC0600564B4B
:100AB0001B6D9B076ED4FFF7F3FC801B0228F6D951
:100AC0000320A5E150494B68524A134022691202A3
:100AD00013434B60ADE74C4A136801218B4313600D
:100AE000FFF7DEFC0600484B1B685B07A1D5FFF74C
:100AF000D7FC801B0228F6D9032089E1E369002B8B
:100B000022D0414A116880235B000B431360FFF73A
:100B1000C7FC06003C4B1B689B0506D4FFF7C0FCD6
:100B2000801B0228F6D9032072E1374A53683C49FA
:100B30000B40616A0B43536053681B021B0A216A16
:100B400009060B435360A4E72F4A136835490B404D
:100B50001360FFF7A5FC06002B4B1B689B0598D57F
:100B6000FFF79EFC801B0228F6D9032050E1264A9D
:100B7000136D01218B431365FFF792FC0600224B96
:100B80001B6D9B0706D5FFF78BFC801B0228F6D94F
:100B900003203DE123685B0700D48CE01A4B9B6B7C
:100BA000DB001BD4184A916B80235B050B439363D6
:100BB00001261D4B1B68DB0512D5A368802252005D
:100BC000934235D0002B4BD10F4B1A6D15490A407B
:100BD0001A651A6D15490A401A652FE00026E8E7E4
:100BE000114A116880235B000B431360FFF758FC28
:100BF00007000D4B1B68DB05DFD4FFF751FCC01B62
:100C00006428F6D9032003E100100240FFFFFEFF35
:100C1000FFFFFBFFFFE0FFFFEC39000800000020B2
:100C2000FF1FFFFFFFFEFFFF00700040FFFBFFFF05
:100C30007E4A116D80235B000B431365A368002B74
:100C400028D0FFF72DFC0700784B1B6D9B0530D497
:100C5000FFF726FCC01B764B9842F5D90320D7E05E
:100C6000A022D200934209D0704B1A6D71490A40FC
:100C70001A651A6D70490A401A65DFE76B4B196DEA
:100C8000013AFF3A0A431A65196D802252000A435D
:100C90001A65D3E7FFF704FC0700644B1B6D9B0547
:100CA00007D5FFF7FDFBC01B614B9842F5D9032028
:100CB000AEE0012E21D023689B063CD5A369002B12
:100CC00021D05A4B99680120014399605A6B024325
:100CD0005A635A4A116A80239B010B431362FFF740
:100CE000DFFB0600514B9B689B0724D4FFF7D8FB22
:100CF000801B0228F6D903208AE04C4A936B5049A6
:100D00000B409363D7E7494A936801218B43936073
:100D10004A4A136A4B490B401362FFF7C1FB0600B6
:100D2000424B9B689B0706D5FFF7BAFB801B022846
:100D3000F6D903206CE0A36A002B00D170E00C2DE3
:100D400049D0022B12D0394A13683F490B40136037
:100D5000FFF7A6FB0400354B1B689B0139D5FFF755
:100D60009FFB001B0228F6D9032051E02F4A13688D
:100D700035490B401360FFF793FB05002B4B1B68B5
:100D80009B0106D5FFF78CFB401B0228F6D90320F8
:100D90003EE02649CB682D4A1340E26A206B0243AD
:100DA000606B02431343CB600A6880235B041343E8
:100DB0000B60FFF775FB04001C4B1B689B0106D4FE
:100DC000FFF76EFB001B0228F6D9032020E000206D
:100DD0001EE000201CE0012B24D0144BDA68802395
:100DE0005B021340E16A8B4201D0012010E0F02346
:100DF0009B031340216B8B4201D0012008E0C023EC
:100E00001B041A40636B9A420ED0012000E00120BF
:100E100003B0F0BD0120FBE70120F9E70120F7E76F
:100E20000020F5E70120F3E70020F1E70010024081
:100E300088130000FFFEFFFFFFFBFFFF00000140E3
:100E4000FFFFFFEFFFDFFFFFFFFFFFFEFFFF02FFE0
:100E500070B504000D00002800D1BAE05F4B1A689D
:100E6000012313408B420BD25C490B680122934350
:100E70002B430B600B681A40AA4201D00120A9E065
:100E800023689B0706D5564AD368F0218B43A16897
:100E90000B43D3602368DB0764D56368022B09D05A
:100EA000032B29D0012B2DD04D4A1268920506D470
:100EB00001208FE04A4A1268920300D48BE048492F
:100EC000CA68032082431343CB60FFF7E9FA0600A8
:100ED0006368022B1CD0032B28D0012B34D0404B4D
:100EE000DB680C221A423DD0FFF7DAFA801B3D4B3B
:100EF0009842F4D903206DE0394A12689201DED499
:100F0000012067E0364A12685207D8D4012061E018
:100F1000334BDA680C231340082B23D0FFF7C0FAB9
:100F2000801B304B9842F3D9032053E02C4BDA68F6
:100F30000C2313400C2B15D0FFF7B2FA801B294B62
:100F40009842F3D9032045E0254BDA680C2313407F
:100F5000042B07D0FFF7A4FA801B224B9842F3D949
:100F6000032037E01D4B1A6801231340AB420BD915
:100F70001A490B68012293432B430B600B681A40FC
:100F8000AA4201D0012025E023685B0706D5144A58
:100F9000D36815490B40E1680B43D36023681B07F6
:100FA00007D50F49CB68114A13402269D200134379
:100FB000CB60FFF737FC0A4BDA6812090F231340A6
:100FC0000B4AD35CD8400B4B18600020FFF734FA73
:100FD00000E0012070BD0120FCE7C0460020024077
:100FE0000010024088130000FFF8FFFFFFC7FFFF5B
:100FF000EC39000800000020014B18687047C0461B
:101000000000002010B5FFF7F7FF044BDA68120A62
:1010100007231340024AD35CD84010BD00100240A1
:10102000FC39000810B5FFF7E7FF044BDA68D20A75
:1010300007231340024AD35CD84010BD0010024081
:10104000FC39000870B5040082231B0102681A42B3
:101050005AD0704B9B6BDB0000D593E06D4A916BCF
:1010600080235B050B43936301256B4B1B68DB05FA
:1010700000D489E0674B1A68C0239B031A4061685B
:101080000B40934200D194E0C0239B020A001A4017
:101090009A4200D195E05F4B1B6DC0229202134033
:1010A0001FD01140994202D02268920608D4C02273
:1010B0009202A1680A409A4213D023681B0510D5FA
:1010C000544B186D554A02401E6D8021090331436F
:1010D0001965196D524E314019651A65C30500D561
:1010E00076E06368C022920219001140914200D15B
:1010F0007EE048490B6DC0229202606802401343B3
:101100000B65012D00D17DE02368DB0706D5414A40
:10111000D36C03218B43E1680B43D36423689B07A3
:1011200006D53C4AD36C0C218B4321690B43D36415
:1011300023685B0706D5374AD36C3A490B4061698F
:101140000B43D36423681B0706D5324AD36C364958
:101150000B40A1690B43D36423685B0606D52D4A77
:10116000D36C32490B40216A0B43D36423681B06BE
:101170004ED5284AD36C2E490B40E1690B43D3640A
:10118000002070BD002570E7234A116880235B00B2
:101190000B431360FFF784F906001F4B1B68DB0548
:1011A00000D567E7FFF77CF9801B6428F5D9032099
:1011B000E7E7C0239B03A0680340934200D063E7A6
:1011C00069E7144B1B689B0300D464E70120D8E750
:1011D000FFF766F906000F4B1B6D9B0500D580E7F6
:1011E000FFF75EF9801B134B9842F4D90320C8E740
:1011F00008490A6810480240C02080030340134396
:101200000B6076E70A008B6B0C490B4093637BE71E
:101210000020B6E70010024000700040FFFFFCFF16
:10122000FFFFF7FFFFF3FFFFFFCFFFFFFFFFFFFB16
:10123000FFFFF3FF88130000FFFFCFFFFFFFFFEF6B
:10124000F8B506000C0017001D0033689B682340AA
:101250001B1B5A425341BB423BD06B1CF5D0FFF7DE
:101260001FF9069BC01AA84201D2002DEDD13268A9
:101270005368E0218B43536082235B0072689A427B
:101280000CD080239B01B26A9A4216D051230122CE
:10129000F254013B0022F25403201BE0B368802289
:1012A0001202934203D08022D2009342E9D13268E5
:1012B000136840218B431360E3E7326813680649E3
:1012C0000B4013603268116880239B010B4313604D
:1012D000DCE70020F8BDC046FFDFFFFF10B582B09D
:1012E0000400822040006368834206D05120205CC5
:1012F000052811D0002002B010BD00920B00002282
:1013000080212000FFF79CFF0028F4D0636D20228D
:10131000134363650320EEE700920B0000220121D6
:101320002000FFF78DFF0028E5D0636D20221343D6
:1013300063650320DFE7704710B5041E3BD0002330
:1013400083625133C35C002B2FD051220223A3545C
:1013500021680B68402083430B606368A1680B43DE
:10136000E1680B4321690B4361690B4380218900CC
:10137000A06901400B43E1690B43216A0B432168DB
:10138000A06A03430B60618B04230B402168606AF1
:1013900003434B602168CB6908480340CB610023BD
:1013A00063650133A354002010BD50330022C254A2
:1013B000FFF7C1FFC9E70120F6E7C046FFF7FFFFCF
:1013C000F0B585B004000E0001921D005023C35CEF
:1013D000012B00D108E150230122C254FFF760F82D
:1013E00007005123E35CDBB26268012B14D0822139
:1013F00049008A4208D0022051230122E254013BD5
:101400000022E25405B0F0BDA268002A00D0DDE061
:10141000042B01D00220EFE7002E00D1D8E0019B81
:10142000002B00D1D6E0002D00D1D5E05123E35CA4
:10143000042B02D051230522E25400236365019A54
:10144000A263E587A5872663E586A5862364636492
:1014500023681A68520603D41A6840210A431A60A6
:1014600080231B01E2689A4211D06368002B01D0EF
:10147000012D0AD1236B1B7822681373236B013370
:101480002363E38E013B9BB2E386012569E0636839
:10149000002B01D0012D0AD12368226B1288DA605B
:1014A000236B02332363E38E013B9BB2E38601256A
:1014B0001BE023689A68D2070ED5E28F92B2002A09
:1014C0000AD0DB68A26B1380A36B0233A363E38FA4
:1014D000013B9BB2E3870125FEF7E2FFC01B0A9B9D
:1014E000984202D3013300D078E0E38E9BB2002B08
:1014F00003D1E38F9BB2002B51D023689A689207E7
:10150000D7D5E28E92B2002AD3D0012DD1D1226B51
:101510001288DA60236B02332363E38E013B9BB2B4
:10152000E3860025C5E723689A68D2070ED5E28FC7
:1015300092B2002A0AD0DB68A26B1370A36B01334E
:10154000A363E38F013B9BB2E3870125FEF7A8FF6E
:10155000C01B0A9B984201D3013341D10A9B002B47
:1015600040D0E38E9BB2002B03D1E38F9BB2002BC4
:1015700015D023689A689207D5D5E28E92B2002AD8
:10158000D1D0012DCFD1226B12781A73236B013386
:101590002363E38E013B9BB2E3860025C3E73A0059
:1015A0000A992000FFF79AFE002803D020236365E4
:1015B000012021E7A368002B00D01DE703932368D7
:1015C000DA6803929B680393039B15E7022013E7F5
:1015D000012011E701200FE701200DE703200BE7B1
:1015E000032009E7032007E702200BE75123C05C33
:1015F000C0B27047D0B50400016883680269134324
:1016000042691343C26913430A68C0480240134346
:101610000B6022685368BE490B40E1680B4353607E
:10162000A1692268BB4B9A4201D0236A194393688F
:10163000B94803400B4393602268B84B9A4216D0D6
:10164000B74B9A4227D0B34B9A4239D01023B149B5
:101650008A4257D080221202E169914200D18CE087
:10166000082B00D949E19B00AE4AD3589F46AE4BA8
:10167000D96C03230B40012B09D0002B05D0022B82
:101680003AD0032B05D01023E1E70123DFE7042341
:10169000DDE70823DBE7A44BD96C0C230B40042BBC
:1016A0000AD005D9082B29D00C2B07D10823CEE767
:1016B000002B03D10023CAE70423C8E71023C6E7A1
:1016C000994BDB6CC02109010B408021C9008B4282
:1016D0000ED009D9802109018B4211D0C021090106
:1016E0008B4207D10823B2E7002B03D10023AEE7DA
:1016F0000423ACE71023AAE70223A8E70223A6E706
:101700000223A4E7022B2DD007D9042B30D0082BBD
:1017100000D0F5E08020000207E0002B00D0EFE0D1
:10172000FFF770FC002800D1ECE0626853009B18C2
:10173000834200D9E8E01303834200D206E1070E9A
:10174000060250080021801979410023FEF768FD48
:10175000764BC218764B9A4200D9F9E02368D860DC
:10176000002085E0704B1B68DB0604D47148DCE781
:10177000FFF758F8D6E77048D7E7082B62D89B00E8
:101780006E4AD3589F46FFF73DFC400063685B08F4
:10179000C0186168FEF7B8FC03041B0C0020684900
:1017A0001A00103A8A4200D9D4E00F22190091435E
:1017B0005B08083A13400B432268D36058E0FFF7F8
:1017C00031FC400063685B08C0186168FEF79CFC50
:1017D00003041B0C0020E2E7534B1B68DB060BD510
:1017E00063685808574B9C4660446168FEF78CFC60
:1017F00003041B0C0020D2E763685808524B9C4638
:1018000060446168FEF780FC03041B0C0020C6E7FF
:10181000FFF708F8400063685B08C0186168FEF7CE
:1018200073FC03041B0C0020B9E76368580880238D
:101830005B029C4660446168FEF766FC03041B0C77
:101840000020ACE701200023A9E7FFF7DBFB63687A
:101850005B08C0186168FEF757FC03041B0C0020EE
:1018600037491A00103A8A4200D975E02268D360DD
:10187000002323666366D0BDFFF7D4FB63685B0873
:10188000C0186168FEF740FC03041B0C0020E7E76A
:10189000254B1B68DB060BD563685808264B9C4616
:1018A00060446168FEF730FC03041B0C0020D7E79E
:1018B000636858081F4B9C4660446168FEF724FC2F
:1018C00003041B0C0020CBE7FEF7ACFF63685B084A
:1018D000C0186168FEF718FC03041B0C0020BFE76A
:1018E0006368580880231B029C4660446168FEF7C9
:1018F0000BFC03041B0C0020B2E701200023AFE720
:101900000120B5E70020B3E70120B1E7F369FFEF5D
:10191000FFCFFFFF00480040FFF4FFFF0038014009
:1019200000440040983900080010024000FDFFFF0D
:10193000FFFC0F000024F40000093D00BC39000842
:10194000EFFF000000127A000048E80101208FE755
:1019500001208DE701208BE7012089E7436ADB073F
:1019600006D5026853682C490B40816A0B435360CB
:10197000436A9B0706D50268536828490B40C16A31
:101980000B435360436A5B0706D5026853682449DA
:101990000B40016B0B435360436A1B0706D502687B
:1019A000536820490B40416B0B435360436ADB068D
:1019B00006D5026893681C490B40816B0B4393600A
:1019C000436A9B0606D50268936818490B40C16BB1
:1019D0000B439360436A5B060BD502685368144956
:1019E0000B40016C0B43536080235B03026C9A42F3
:1019F0000AD0436A1B0606D5026853680D490B409E
:101A0000816C0B4353607047026853680A490B406E
:101A1000416C0B435360ECE7FFFFFDFFFFFFFEFF50
:101A2000FFFFFBFFFF7FFFFFFFEFFFFFFFDFFFFF7A
:101A3000FFFFEFFFFFFFF7FFFFFF9FFFF0B5C64679
:101A400000B506000C0017009846069D3368DB6958
:101A500023401B1B5A425341BB421CD16B1CF5D087
:101A6000FEF71EFD4346C01AA84201D8002DEDD155
:101A7000326813680A490B40136032689368A331D7
:101A8000FF318B43936020237367B3675033002289
:101A9000F254032000E0002004BC9046F0BDC04694
:101AA0005FFEFFFFF0B585B004000E0017001D00BB
:101AB000436F202B5FD1002960D0002A60D08023A3
:101AC0005B0182689A4218D07023E35C012B59D0E5
:101AD00070230122E2540023E36721336367FEF79A
:101AE000DFFC03905023E7520233E75280235B016F
:101AF000A2689A4208D0002716E00369002BE3D1C0
:101B0000CB07E1D5012037E02369002B21D0002746
:101B10000AE03B882268DB05DB0D93620237522224
:101B2000A35A013B9BB2A3525223E35A9BB2002B10
:101B300012D00095039B002280212000FFF77EFF3A
:101B4000002821D1002EE4D0327823689A62013631
:101B5000E5E737000026E7E70095039B00224021D8
:101B60002000FFF76BFF002810D12023636750335C
:101B70000022E25400E0022005B0F0BD0120FBE7A6
:101B80000120F9E70220F7E70320F5E70320F3E758
:101B900030B583B004000023C367FEF781FC050065
:101BA00023681B681B070CD423681B685B0715D4CC
:101BB00020236367A36750330022E254002003B060
:101BC00030BD80210C4B00930300002289032000CC
:101BD000FFF734FF0028E7D00320F0E78021064B11
:101BE00000932B000022C9032000FFF727FF0028E5
:101BF000DED00320E3E7C046FFFFFF0110B5041E5F
:101C00002ED0436F002B21D02423636722681368F2
:101C100001218B4313602000FFF7ECFC012814D056
:101C2000636A002B18D1226853680E490B40536039
:101C3000226893682A218B439360226813682939AC
:101C40000B4313602000FFF7A3FF10BD7033002289
:101C5000C25400F0E9FED7E72000FFF77FFEE2E77D
:101C60000120F2E7FFB7FFFF70B58AB01D0003AC9B
:101C700020706170A27001AE07220021300000F0D8
:101C80005EFF04A8002305933F3303804B3343805A
:101C90008460873BC360066104334361002100F028
:101CA00081F9002815DB01AB187800280FD11A0044
:101CB000019B1B021B0C2B80D17813791B020B4359
:101CC0000E990B8053681B021B0C0F9A13800AB0ED
:101CD00070BDFF20FBE7F0B5CE46474680B591B01A
:101CE0000192994618AB1B78984619AB1F781A9D3C
:101CF0001BAB1E7803AC207061701022019902ABFF
:101D0000981D00F013FF4B46A3744346E3742775F8
:101D1000192302AA944663441D702A0A5A702A0C99
:101D20009A702D0EDD7066760AA800230B933F3360
:101D300003804733438084606C3BC3606346033356
:101D4000036101234361002100F02CF9002806DB28
:101D500002ABD87811B00CBC90469946F0BDFF207C
:101D6000F8E710B58AB002AC2080618022716371FF
:101D700004A83F230380583343808460913BC360B1
:101D8000093343606B46073303610123436100213C
:101D900000F008F9002803DB6B46D8790AB010BDC3
:101DA000FF20FBE710B588B002AC0C22002103A88D
:101DB00000F0C5FE3F2323800223FF3363806B4680
:101DC00007332361012363610021200000F0EAF85A
:101DD000002803DB6B46D87908B010BDFF20FBE775
:101DE00030B5A9B00C001100A31C802B20DC01AD84
:101DF00028706C7022006B46981D00F097FE02342C
:101E0000E4B222A8002323933F330380333B438073
:101E10008560C4607B336B4403610123436100210F
:101E200000F0C0F8002806DB87236B44187800E038
:101E3000422029B030BDFF20FBE710B588B002ACCE
:101E40000C22002103A800F07AFE03232380638084
:101E50006B4607332361012363610021200000F0FA
:101E6000A1F8002803DB6B46D87908B010BDFF202D
:101E7000FBE7037A042B01D001207047827A843378
:101E8000C35C033B9A4201D10020F6E70220F4E74D
:101E900030B5A3B015001C008905890D80020843E8
:101EA00001A908808A7002AB01221A70023209204F
:101EB000684400F03BFE2A00210003A800F036FE33
:101EC000044B1B69002B02D0291D02A8984723B0A0
:101ED00030BDC0468400002000B583B007E001A9F2
:101EE000064800F09AF90199054800F07EF9044887
:101EF00000F0B7F90128F2DD03B000BD8004002036
:101F00007804002030B583B005000C0007E001A97B
:101F1000200000F094F90199280000F05AF92000FF
:101F200000F04BF90028F2D003B030BD10B5002806
:101F300001D0114BD86100F085FB104800F03AF950
:101F40000F4800F037F9002408E08C2161430D4B65
:101F5000C9180A4800F049F90134E4B2042CF4D954
:101F6000054B1B68002B01D000209847024B9B6853
:101F7000002B00D0984710BD84000020780400207A
:101F800080040020A4000020054B02681A60C2688B
:101F9000DA6002691A6182699A6182689A607047A0
:101FA00084000020F0B585B004000E000222835E9C
:101FB0009B059B0D0288920213439DB2002303935D
:101FC00001A800F0F7F8FFF787FF227B61882088DF
:101FD000A368FFF75DFF002E00D08AE0FEF760FAED
:101FE0000600FEF75DFA801BFA239B00984256D844
:101FF000414800F0E2F80028F3D103A93E4800F080
:102000000CF903990B7A042B10D10E000B36843394
:10201000C85C03384B7A0F2B35D018D9102B3ED023
:102020003E2B03D1CB7A6268934250D0334800F004
:10203000C4F8002804D0304800F0BFF8002851D17F
:10204000039901A800F0D1F800230393C6E70E2BF3
:10205000ECD10E7B4B7B1B023343AB421FD10E31C5
:1020600003386269824200D902006261206900F08F
:102070005DFD0399214800F0ACF801A91E48FFF767
:1020800041FF002017E04F7B8B7B1B023B43AB42A1
:1020900005D163680F2B10D0CB7A002BC6D00399E3
:1020A000002902D0154800F094F801A91248FFF762
:1020B00029FF0120404205B0F0BD6269824200D98B
:1020C000020062612069310000F030FDD1E7013883
:1020D0006269824200D9020062610C31206900F01D
:1020E00025FDC6E70399054800F07FF80023039318
:1020F00074E70020DFE7C046800400207804002059
:1021000000B583B00023019303E001990A4800F071
:102110006CF80A4800F051F800280BD101A90748D3
:1021200000F07BF8064BDB69002BEED001980830FD
:102130009847EAE703B000BD78040020800400203F
:102140008400002010B582B000230193164800F0EF
:1021500034F8002801D002B010BD01A9124800F0E7
:102160005CF8124BDB68002BF5D001980830802119
:102170009847C0B2002811D0019C8823E054200069
:10218000FFF777FE002804D12100094800F02DF860
:10219000E1E72100044800F01CF8DCE7019902485F
:1021A00000F017F8D7E7C04678040020840000202C
:1021B00080040020006040607047EFF3108372B627
:1021C0000268824203D0002083F310887047012008
:1021D000FAE7EFF3108372B602680A6048600160A4
:1021E0000A68516083F310887047EFF3108372B66A
:1021F000086042684A6041604A68116083F3108851
:102200007047EFF3108372B642680168116002688C
:102210004168516083F31088704770B50C00EFF38C
:10222000108572B603680B600068FFF7EAFF22684A
:10223000002313602268536085F3108870BD70B569
:102240000C00EFF3108572B643680B604068FFF72F
:10225000D8FF2268002313602268536085F310883A
:1022600070BDEFF3108172B60368002201E0013205
:102270001B688342FBD181F3108810007047000077
:1022800000B589B000211548FFF750FEFFF7D5FDD6
:102290006420FEF70BF906AA06210020FFF7A0FD37
:1022A000FFF780FD12236B44019305AB00931623C7
:1022B0006B44072200210D20FFF7D6FC0023039377
:1022C000074A0292019310330093093B0022002138
:1022D0000020FFF700FD09B000BDC04689230008BB
:1022E00040E2010010B58020C0010023002201005F
:1022F000FFF737FD5F20FEF7D9F8FFF701FF10BDAC
:10230000F0B5C64600B580460F001600164800F02E
:102310001FFC00240DE04346195D144B1955BD7F89
:10232000134B9D7780235B005D1B124800F010FC6F
:102330000134A642EFDC104C200000F009FC0F48ED
:1023400000F006FC29000E4800F002FC200000F01E
:10235000FFFB0C4C200000F0FBFB200000F0F8FB22
:1023600004BC9046F0BDC046043A0008A804002012
:10237000880400200C3A0008103A0008143A0008BB
:102380001C3A0008203A000810B50378042B00D04E
:1023900010BD43783E2BFBD1C378022BF8D1C31D6F
:1023A00001000E31427B1800FFF7AAFFF0E70000A2
:1023B000F0B58BB01422002105A800F0C0FB224B21
:1023C000D96A04221143D962D96A0A400192019A5A
:1023D000D96A80221143D962D96A0A400292029ACC
:1023E000DA6A01242243DA62DA6A22400392039A0B
:1023F000D96A02221143D962DB6A1A400492049B13
:1024000081277F00A025ED05002239002800FEF776
:1024100002FA05940D4B06930026079605A928009D
:10242000FEF7A8F8059706940796089605A92800D0
:10243000FEF7A0F8002200210520FEF745F8052050
:10244000FEF772F80BB0F0BD001002400000111052
:1024500070B586B0154BDA6A01252A43DA62DB6A69
:102460002B400093009B0195114B02930024039491
:10247000A026F60501A93000FEF77CF880235B005A
:10248000019302950394049401A93000FEF772F8B9
:102490000223019302950394049401A93000FEF7EE
:1024A00069F800F009FA06B070BDC046001002409D
:1024B0000000111010B5A024E40501212000FEF752
:1024C0001FF902212000FEF71BF98021490020009E
:1024D000FEF716F9002010BD70B580256D00A02410
:1024E000E405002229002000FEF795F90520FDF7FC
:1024F000DDFF012229002000FEF78DF90520FDF700
:10250000D5FF002070BDF0B585B007000E000F2389
:102510006B44FF221A7002AC0B23237000236370FC
:10252000A370E3702371A02000220221C005FEF7F2
:1025300072F905226946200000F08AF96B461B7883
:10254000022B09D00024A02001220221C005FEF7A1
:1025500062F9200005B0F0BD6B461A791202DB78F3
:10256000134314D0B34200D81E0000240BE00E2504
:102570006D44012229000F20684400F069F92B788E
:102580003B550134E4B2A3B2B342F0D3DBE70024FD
:10259000D9E70000F0B585B005000F0002AB0A22B4
:1025A0001A7000225A709A70DA701A71FDF778FF6B
:1025B000060012E06B465B78BB4220D202246442E4
:1025C000A02001220221C005FEF725F9FDF768FFD2
:1025D000801B0F281AD8002C1ADAA0200022022112
:1025E000C005FEF718F90522694602A800F030F987
:1025F0006B461B78022BDDD001246442E0E73A00F1
:102600000549280000F024F90024D9E70324644296
:10261000200005B0F0BDC0466003002010B5A0202A
:102620000121C005FEF7F0F801384342584110BDC2
:1026300010B502E00020FFF785FDFFF7EFFF00284F
:10264000F8D110BD10B588B0114B0193114B029316
:10265000114B0593114B0493114B0393114B0793AB
:1026600001A8FFF791FCC0210F4CC904200000F025
:102670007FF80E4A0021200000F073F800220021AC
:102680000520FDF721FF0520FDF74EFF08B010BD26
:1026900051240008B52400089525000807250008E6
:1026A000D924000879280008C80400203126000831
:1026B00070B59CB0382200210EA800F040FA142218
:1026C000002109A800F03BFA24220021684600F00E
:1026D00036FA12490B68124A1A4080231B01134331
:1026E0000B6002250E9501261196102312930024EB
:1026F00018940EA8FEF7EEF80F2309930A960B9490
:102700000C940D94002109A8FEF7A2FB00950494F7
:102710006846FEF797FC1CB070BDC04600700040D4
:10272000FFE7FFFF10B5FDF79FFEFFF7C1FFFFF7C3
:102730003FFE00F05BF9FFF7A3FDFFF7D3FDFCE7D9
:1027400000B583B00190044B012201A90348FFF7B3
:10275000A9F9019803B000BDFFFF00002805002083
:102760007047002902D14260002070470120FCE739
:10277000002802D00160002070470120FCE7000023
:1027800010B51F2203681A4001239340054A52697D
:10279000134205D0034A53614368002B00D0984789
:1027A00010BDC04600040140054B5A6B01210A438D
:1027B0005A63996B802252050A439A637047C04658
:1027C000001002407047FEE77047704710B5FDF7F4
:1027D0005FFE10BD10B50248FFF7D2FF10BDC04626
:1027E000C804002070B588B0174B596B8022520185
:1027F0000A435A63D96A01221143D962D96A0A404D
:102800000192019ADA6A02252A43DA62DB6A2B40D6
:102810000293029BC023039304950024059403268E
:1028200006960794A02003A9C005FDF7A3FE082380
:102830000393049505940696079403A90348FDF7AE
:1028400099FE08B070BDC046001002400004005060
:1028500000B583B013008022520100920A000100EB
:102860000448FEF7ADFD002801D103B000BD0620ED
:102870004042FAE7D004002010B5FDF711FE10BD6C
:1028800010B50C4B036082235B0043600023836020
:10289000C36003614361802292008261C36103626D
:1028A000436283620733C362FEF746FD002800D00F
:1028B000012010BD0030014010B50F4B0F4A1A60C7
:1028C0000F4A1368591C1160002B01D0002010BD65
:1028D0000948FEF78BFE002801D00020F7E7064CE0
:1028E0002000FFF77FFF2000FFF7CAFF0028EED08F
:1028F00008204042EBE7C046D004002000300140F1
:102900006004002070B50D001600002404E000E013
:1029100000BF287001340135B442F8DB300070BDCF
:1029200070B51600002405E04D1C0878FFF708FF7D
:1029300001342900B442F7DB300070BD10B503004C
:102940000B4A1268002A08D0094A1068C3186A4660
:10295000934206D8064A136010BD054A0549116026
:10296000F2E700F0B9F80C23036001204042F3E7DE
:1029700064040020B00500200120404270478023FD
:102980009B014B600020704701207047002070477A
:10299000104B1968802252000A431A60DA680E4907
:1029A0000A40DA601A680D490A401A609A680121E3
:1029B0008A439A601A680A490A401A60DA68094923
:1029C0000A40DA6000221A61074B802212059A60E1
:1029D0007047C046001002400C40FF88F6FFF6FE2C
:1029E000FFFFFBFFFFFF02FF00ED00E010B50C480A
:1029F0000C4B0360E1235B02436000238360C360F0
:102A000003610C2242618361C36103624362FFF789
:102A1000F5F8002800D110BDFFF7A2FEFBE7C04685
:102A2000280500200044004010B586B004001422A0
:102A3000002101A800F083F82268104B9A4201D0CF
:102A400006B010BD0E4B996B802292020A439A6326
:102A5000D96A01221143D962DB6A1A400092009BB5
:102A60000C2301930A3B0293013304930133059332
:102A7000A02001A9C005FDF77DFDE1E7004400406D
:102A8000001002400D488546002103E00C4B5B58C6
:102A9000435004310B480C4B42189A42F6D30B4A70
:102AA00002E0002313600432094B9A42F9D3FFF786
:102AB0006FFF00F017F8FFF735FEFEE7002000205B
:102AC000CC3A0008000000206800002068000020C8
:102AD000AC050020FEE70000014B18687047C046B7
:102AE0000400002070B500260C4D0D4C641BA41092
:102AF000A64209D1002600F043FF0A4D0A4C641B90
:102B0000A410A64205D170BDB300EB58984701361A
:102B1000EEE7B300EB5898470136F2E7C43A0008F5
:102B2000C43A0008C43A0008C83A0008002310B5A7
:102B30009A4200D110BDCC5CC4540133F8E70300C5
:102B40001218934200D1704719700133F9E7000061
:102B50000FB40B4B13B51C68002C05D0A369002BD8
:102B600002D1200000F050F805AB049AA1682000C3
:102B7000019300F063F916BC08BC04B01847C046C6
:102B800004000020002310B504000360436083604C
:102B900081814366C2810361436183611900082218
:102BA0005C30FFF7CCFF054B24626362044BA362E9
:102BB000044BE362044B236310BDC0467933000825
:102BC000A1330008D93300080534000810B50249C4
:102BD00000F08CF810BDC0460937000870B56825B4
:102BE0004A1E55430E002900743100F0A1F8041E5E
:102BF00008D000212A00016046600C30A0606832D5
:102C0000FFF79DFF200070BD836913B50400002B02
:102C100028D18364C3640365134B144A1B68826222
:102C20000193984201D101238361200000F020F834
:102C30006060200000F01CF8A060200000F018F890
:102C40000022E06004216068FFF79CFF0122092157
:102C5000A068FFF797FF02221221E068FFF792FFBA
:102C60000123A36113BDC046243A0008CD2B000800
:102C7000F8B51C4B07001E68B369002B02D1300069
:102C8000FFF7C2FF4836B4687368013B04D5336868
:102C9000002B07D03668F6E70C22A55E002D0DD07C
:102CA0006834F2E704213800FFF798FF306000280D
:102CB000F0D10C2304003B602000F8BD20000A4B3B
:102CC000656625606560A560E36025616561A56155
:102CD000082229005C30FFF732FF6563A563A56415
:102CE000E564E9E7243A00080100FFFFF7B50400B6
:102CF0000700002601914834002C01D13000FEBDB0
:102D00006368A5680093009B013B009301D524688C
:102D1000F2E7AB89012B08D90E22AB5E013304D058
:102D200029003800019B984706436835EBE700000F
:102D3000032370B5CD1C9D43083506000C2D1ED213
:102D40000C25A9421DD8300000F095FD254A1468D5
:102D50002100002919D1244C2368002B03D1300015
:102D600000F0F8FA20602900300000F0F3FA431C6C
:102D70002BD10C233000336000F07EFD03E0002DEA
:102D8000DFDA0C233360002070BD0B685B1B19D4A5
:102D90000B2B03D90B60CC18256003E04B688C42E9
:102DA0000DD11360300000F067FD200007220B30CA
:102DB000231D9043C31AE7D05A42E250E4E7636010
:102DC0000C00EFE70C004968C3E70323C41C9C43D5
:102DD000A042E1D0211A300000F0BCFA431CDBD144
:102DE000C7E7C0466C04002070040020936810B54B
:102DF000013B9360002B04DA9469A34207DB0A29A4
:102E000005D01368581C10601970080010BD00F040
:102E1000FFFA0100F9E7F8B506000F001400D51815
:102E2000AC4201D1002007E021783A003000FFF7E2
:102E3000DDFF0134431CF3D1F8BD0000F0B5A1B0B3
:102E400003900F0016001D00002805D0836905932C
:102E5000002B01D1FFF7D8FE7B4B9F425CD1039B37
:102E60005F68BB891B0763D53B69002B60D00023DB
:102E700008AC6361203363761033A3760795350081
:102E80002B78002B01D0252B5CD1AB1B05930CD0EC
:102E9000320039000398FFF7BEFF431C00D1C4E0A5
:102EA0006269059B9446634463612B78002B00D1D3
:102EB000BBE0012200235242626004A9543252183E
:102EC0006E1C2360E360A3601370A3653178052254
:102ED0005E4800F0C5FC751C002835D12268D30679
:102EE00004D5532304A95B1820211970130704D5B6
:102EF000532304A95B182B21197033782A2B2CD06B
:102F0000350000210A20E3682A786E1C303A092A2D
:102F100064D900292ED026E04D4B9F4202D1039B5D
:102F20009F689EE74B4B9F429BD1039BDF6898E7CE
:102F30003900039800F0D6FA002898D001204042CA
:102F400021B0F0BD01359BE7404B2268C01A012338
:102F50008340134323602E00B8E7079B191D1B68AD
:102F60000791002B01DB0B9304E05B42E36002233B
:102F7000134323602B782E2B0AD16B782A2B35D163
:102F8000079B02351A1D1B680792002B2BDB099348
:102F9000314E29780322300000F062FC002806D070
:102FA0004023801B83402268013513432360297826
:102FB00006222A486E1C217600F052FC00283AD0E6
:102FC000274B002B25D10722079B07339343083358
:102FD00007936369049A9B18636150E74343012197
:102FE0009B18350090E701235B42D0E700230A20BD
:102FF0001A000135636029786E1C3039092903D91C
:10300000002BC5D00992C3E7424301235218350073
:10301000F1E707AB00933A00124B2100039800E060
:1030200000BF0490049B0133D3D1BB895B0600D55C
:1030300084E70D9884E707AB00933A00094B210021
:10304000039800F07FF8ECE7483A0008883A000857
:10305000683A0008283A00088E3A0008923A0008B8
:1030600000000000172E0008F7B5150001938A68CC
:103070000B6900900C00934200DA130022002B60D1
:1030800043321278002A01D001332B6023689B065B
:1030900002D52B6802332B60062723681F4027D0F8
:1030A000230043331B785A1E93412268920630D482
:1030B0002200019943320098089EB047431C25D056
:1030C000062320682A68E16803400025042B03D109
:1030D0008D1AEB43DB171D40A3682269934201DD83
:1030E0009B1AED180027BD4220D1002010E00137C7
:1030F000E3682A689B1ABB42D2DD22000123193201
:1031000001990098089EB047431CF0D1012040422D
:10311000FEBD3020E1184331087021005A1C4531B2
:103120000978A218433202331170C1E7220001234B
:103130001A3201990098089EB047431CE6D0013727
:10314000D1E70000F0B589B004920A00433205933C
:10315000039002920A7E0C000E9B6E2A00D186E03C
:103160001FD8632A33D008D8002A00D18CE0582A0F
:103170004DD0250042352A7030E0642A01D0692AFA
:10318000F7D1196825680A1D280629D508681A602C
:10319000002803DA2D23029A404213706B4E0A274F
:1031A0004FE0732A74D008D86F2A1FD0702AE0D15C
:1031B000202209680A43226003E0752A16D0782A83
:1031C000D7D12200782145321170614E22E02500CE
:1031D0001A684235111D196013682B70012365E0D0
:1031E00008681A606906D3D500B2D1E71968256866
:1031F000081D186008682E0605D5544E08276F2A4A
:103200001BD00A2719E06D06F7D580B2F5E74531E6
:103210004E4E0A7018682268011D00681960150674
:1032200021D5D30702D520231A4322601027002876
:1032300003D1202322689A432260230000224333D3
:103240001A706368A360002B58DB04222168914345
:103250002160002854D1029D002B5AD025003378DC
:1032600042352B7055E05506DBD580B2D9E71A6898
:103270000D68101D4969186013682E0601D5196084
:1032800002E06D06FBD519800023029D23614FE00B
:103290001A68111D1960156800216268280000F085
:1032A000DFFA002801D0401B6060636823610023BF
:1032B000029A13703CE023692A0004990398059D43
:1032C000A847431C3ED023689B0715D4079BE068A2
:1032D000984239DA180037E02200012319320499A4
:1032E0000398059EB047431C2CD00135E368079A2C
:1032F0009B1AAB42F0DCE9E70025F7E70028ADD0E8
:10330000029D3900FCF786FF735C013D2B7000289D
:10331000F7D1082F09D12368DB0706D56368226936
:10332000934202DC3023013D2B70029B5B1B236127
:10333000059B07AA00932100049B0398FFF794FEC6
:10334000431CB8D10120404209B0F0BD993A0008B1
:10335000AA3A0008002370B5064C05000800236057
:10336000FFF7ECFA431C03D12368002B00D02B603D
:1033700070BDC046A805002070B50C000E25495F41
:1033800000F0C6FA002803DB636D1B18636570BD8F
:10339000A389024A1340A381F9E7C046FFEFFFFF6C
:1033A000F8B51F008B8905000C001600DB0505D55C
:1033B0000E23C95E0022022300F0D2F9A389054A38
:1033C00028001340A38132000E23E15E3B0000F091
:1033D00075F8F8BDFFEFFFFF70B50C000E25495FD3
:1033E00000F0BEF9A389421C03D1054A1340A38112
:1033F00070BD802252011343A3816065F8E7C04687
:10340000FFEFFFFF10B50E23C95E00F0E1F810BD1D
:10341000F8B505000E001400002804D08369002BC5
:1034200001D1FFF7F1FB224B9C422DD16C68A369BF
:10343000A360A3891B0731D52369002B2ED02368F5
:103440002269F7B2981A6369F6B2834205DC21005B
:10345000280000F059F9002826D1A3680130013B6B
:10346000A36023685A1C22601F706369834204D0E2
:10347000A389DB071AD50A2E18D12100280000F0F5
:1034800043F9002812D00FE00A4B9C4201D1AC68EE
:10349000CDE7094B9C42CAD1EC68C8E7210028005F
:1034A00000F020F80028CAD0012676423000F8BD8E
:1034B000483A0008683A0008283A000870B5050044
:1034C000080011000022064C22601A00FFF728FABB
:1034D000431C03D12368002B00D02B6070BDC04675
:1034E000A8050020364B70B51D6806000C00002DA5
:1034F00005D0AB69002B02D12800FFF785FB314BCB
:103500009C420FD16C680C23E25E93B219072DD454
:10351000D90611D409230120336037331343A38123
:10352000404270BD284B9C4201D1AC68EBE7274B71
:103530009C42E8D1EC68E6E75B0713D5616B002994
:1035400008D023004433994202D0300000F096F9AD
:10355000002363632422A3899343A3810023636030
:10356000236923600823A2891343A3812369002BC5
:103570000BD1A0218022A389890092000B409342A5
:1035800003D02100300000F027F90123A289134065
:1035900011D00023A36063695B42A361002023690B
:1035A0008342BED10C23E25E1306BAD540231343F7
:1035B000A3810138B5E7920700D46369A360EDE702
:1035C00004000020483A0008683A0008283A000839
:1035D000002370B5064C050008002360FFF7CCF906
:1035E000431C03D12368002B00D02B6070BDC04664
:1035F000A8050020F7B58A8905000C00130760D4E0
:103600004B68002B04DC0B6C002B01DC0020FEBDA2
:10361000E76A002FFAD000232E682B6080235B011D
:10362000216A1A4034D0606DA3895B0706D56368B0
:10363000C01A636B002B01D0236CC01A0200216AF0
:1036400000232800E76AB847A189431C06D12B68EC
:103650001D2B30D82B4ADA40D3072CD500236360CA
:1036600023692360CB0405D5431C02D12B68002BB2
:1036700000D16065616B2E600029C7D02300443300
:10368000994202D0280000F0F9F800206063BEE7FC
:1036900001232800B847431CC6D12B68002BC3D098
:1036A0001D2B01D0162B01D12E60AFE74023A2893C
:1036B0001343A381ABE740230B430120A381404286
:1036C000A5E70F69002FA1D00B680F60DB1B0193EA
:1036D0000023920700D14B69A360019B002B00DC03
:1036E00094E7019B3A00216A2800A66AB0470028A7
:1036F00003DC4023A2891343DFE7019B3F181B1A19
:103700000193EAE7010040200B6970B505000C0049
:10371000002B01D1002070BD002804D08369002B4C
:1037200001D1FFF771FA0B4B9C4209D16C680C2256
:10373000A35E002BEED021002800FFF75BFFEAE735
:10374000054B9C4201D1AC68F1E7044B9C42EED1A1
:10375000EC68ECE7483A0008683A0008283A0008A4
:1037600070B50500080011000022064C22601A0006
:10377000FFF70CF9431C03D12368002B00D02B600A
:1037800070BDC046A805002070B50E001D000E23B8
:10379000C95E96B01400002907DA00232B60B389B4
:1037A0001B0611D48023DB000FE06A4600F0C4F84A
:1037B0000028F2DBF022019B12021340054A9B18FD
:1037C0005A4253412B60EDE740230020236016B09E
:1037D00070BDC04600E0FFFFF7B502268B890500EB
:1037E0000C00334206D023004733236023610123BA
:1037F0006361F7BD01AB6A46FFF7C6FF009907009A
:103800002800FFF795FA002808D10C22A35E9A053C
:10381000EFD4032293431E43A681E4E70F4BAB6230
:103820008023A28920601343A381009B20616361F0
:10383000019B002B0DD00E23E15E280000F08EF8D6
:10384000002806D00322A38993431A0001231343BF
:10385000A381A0893843A081CBE7C046CD2B0008C7
:10386000C9B28218904201D10020704703788B4280
:10387000FBD00130F6E770477047000070B50500D7
:10388000002910D00C1F2368002B00DAE418280050
:10389000FFF7F1FF1D4A1368002B05D16360146028
:1038A0002800FFF7E9FF70BDA34209D9216860181D
:1038B0008342F3D118685B6841182160EEE713007A
:1038C0005A68002A01D0A242F9D919685818A042B2
:1038D0000BD120680918581819608242E0D110688D
:1038E0005268411819605A60DAE7A04202D90C23E5
:1038F0002B60D5E721686018824203D110685268B6
:103900004118216062605C60CAE7C0466C04002018
:1039100070B50500080011000022064C22601A0054
:10392000FEF7F0FF431C03D12368002B00D02B606F
:1039300070BDC046A8050020002370B5064C0500E8
:10394000080011002360FFF71AF8431C03D1236815
:10395000002B00D02B6070BDA8050020002370B59F
:10396000064C050008002360FFF70EF8431C03D146
:103970002368002B00D02B6070BDC046A805002036
:10398000F8B5C046F8BC08BC9E467047F8B5C046BE
:08399000F8BC08BC9E4670471C
:103998004A1800087818000890180008FA18000853
:1039A800C8180008FA180008FA180008FA180008D9
:1039B800E018000886170008BE170008D817000886
:1039C8004418000810180008441800084418000893
:1039D800441800082A180008030406080C101820C8
:1039E8003000000000000000000000000102030495
:1039F800060708090000000001020304444556496F
:103A080043453A00257000002020200052535349B6
:103A18003A000000256400000A0D0000080000209C
:103A2800000000000000000000000000000000008E
:103A3800000000000000000000000000000000007E
:103A4800000000000000000000000000000000006E
:103A5800000000000000000000000000000000005E
:103A6800000000000000000000000000000000004E
:103A7800000000000000000000000000000000003E
:103A8800232D302B2000686C4C006566674546473F
:103A980000303132333435363738394142434445C2
:103AA8004600303132333435363738396162636431
:043AB800656600003F
:083ABC00A4C7FF7F0100000018
:043AC400E90000080D
:043AC800C100000831
:103ACC00000020000800002000000000483A000818
:103ADC00683A0008283A00080000000000000000C6
:103AEC0000000000000000000000000000000000CA
:103AFC0000000000000000000000000000000000BA
:103B0C0000000000000000000000000000000000A9
:103B1C000000000000000000000000000000000099
:083B2C00000000000000000091
:0400000508002A8540
:00000001FF
